S01400004672656552544F534C6162312E7372656306
S11300000C942A000C9447000C9447000C9447006D
S11300100C9447000C9447000C9447000C9409027C
S11300200C9447000C9447000C9447000C94470030
S11300300C9447000C9447000C9447000C94470020
S11300400C9447000C9447000C9447000C94470010
S11300500C94470011241FBECFE5D8E0DEBFCDBF0E
S113006010E0A0E6B0E0E2E2F0E102C005900D92FB
S1130070A037B107D9F726E0A0E7B0E001C01D9290
S1130080AA3BB207E1F70E94EA070C940F080C940C
S11300900000FC010396928381832FEF3FEF3483AA
S11300A02383968385839087878310820895FC0138
S11300B0118610860895CF93DF93EB01488159810F
S11300C04F3F2FEF520721F4FC01A781B0850DC0EB
S11300D0DC01139601C0DF011296ED91FC91139798
S11300E02081318142175307B0F71296ED91FC91AC
S11300F01397FB83EA83D583C483BD83AC831396B0
S1130100DC93CE93129799878887FC0120812F5F17
S11301102083DF91CF910895CF93DF93FC01A085D5
S1130120B185C281D381848195819D838C83C4816F
S1130130D581828193819B838A8311968D919C9131
S11301401297E817F90731F48481958112969C93EC
S11301508E931197118610868C9181508C938C917B
S1130160DF91CF91089531E1FC013083319722E290
S113017020833197A3E3A083319760833197708301
S113018031971082319760E86083319710823197FC
S113019062E06083319763E06083319764E0608359
S11301A0319765E06083319766E06083319767E05B
S11301B06083319768E06083319769E060833197A9
S11301C060E1608331973083319732E13083319736
S11301D033E13083319734E13083319735E1308333
S11301E0319736E13083319737E13083319738E105
S11301F03083319739E13083319730E2308331975E
S113020031E2308331972083319723E22083319781
S1130210408331975083319726E22083319727E238
S11302202083319728E22083319729E22083319774
S113023020E32083319721E32083869708951BBC14
S11302408EE08ABD8BE08EBD89B7806189BFA091A5
S1130250B806B091B906CD91CDBFDD91DEBFFF9157
S1130260EF91DF91CF91BF91AF919F918F917F914A
S11302706F915F914F913F912F911F910F91FF903B
S1130280EF90DF90CF90BF90AF909F908F907F9032
S11302906F905F904F903F902F901F900F900FBEE4
S11302A00F90089581E008950F920FB6F8940F927D
S11302B01F9211242F923F924F925F926F927F92DE
S11302C08F929F92AF92BF92CF92DF92EF92FF9262
S11302D00F931F932F933F934F935F936F937F934A
S11302E08F939F93AF93BF93CF93DF93EF93FF933A
S11302F0A091B806B091B9060DB60D920EB60D9246
S11303000E946D07A091B806B091B906CD91CDBFFA
S1130310DD91DEBFFF91EF91DF91CF91BF91AF915E
S11303209F918F917F916F915F914F913F912F9109
S11303301F910F91FF90EF90DF90CF90BF90AF90FF
S11303409F908F907F906F905F904F903F902F90F1
S11303501F900F900FBE0F9008950F920FB6F89450
S11303600F921F9211242F923F924F925F926F929D
S11303707F928F929F92AF92BF92CF92DF92EF9231
S1130380FF920F931F932F933F934F935F936F931A
S11303907F938F939F93AF93BF93CF93DF93EF9309
S11303A0FF93A091B806B091B9060DB60D920EB6A2
S11303B00D920E945C0581110E946D07A091B80600
S11303C0B091B906CD91CDBFDD91DEBFFF91EF9124
S11303D0DF91CF91BF91AF919F918F917F916F9159
S11303E05F914F913F912F911F910F91FF90EF904B
S11303F0DF90CF90BF90AF909F908F907F906F9041
S11304005F904F903F902F901F900F900FBE0F90D2
S113041008950E94AD011895CF93DF93DC01ECE7BA
S1130420F0E001C0F901208131812A173B07D0F3A4
S113043082819381AF01480F591FA417B50749F46E
S113044012964D915C911397840F951F9383828329
S1130450DF0112968D919C911397ED01C80FD91F5E
S11304602C173D07D9F420917A0030917B00C217F4
S1130470D30781F02A813B81820F931F13969C93AB
S11304808E931297C081D1818881998111969C9312
S11304908E9307C01196DC93CE9303C011963C93C0
S11304A02E93AE17BF0711F0B183A083DF91CF91D4
S11304B00895CF92DF92EF92FF920F931F93CF9301
S11304C0DF93EC010E94560580917A0090917B00A5
S11304D0892B41F5ECE7F0E0A0E8B0E0B183A0831C
S11304E013821282E8E5F6E0F0937B00E0937A0051
S11304F0138212821182108288ED95E013969C93E8
S11305008E931297ED93FC939093770080937600EB
S1130510909379008093780080E090E89093710044
S113052080937000E0907000F0907100C7018C23FC
S11305309D23892B09F06DC0209709F46DC09E019D
S11305402C5F3F4FC217D30708F069C0211531054E
S113055009F468C00091780010917900021713071C
S113056008F463C0C0917C00D0917D00ECE7F0E01A
S113057002C0FE01EC018A819B818217930720F45B
S1130580888199810097A9F780917A0090917B00E6
S1130590C817D90709F44CC0C080D18084E0C80EC4
S11305A0D11C88819981918380834A815B81421B1C
S11305B0530B4930510550F0CE01820F931FFC01BB
S11305C0538342833B832A830E940C028A819B814A
S11305D0081B190B10937900009378002091760082
S11305E0309177000217130720F4109377000093DB
S11305F07600E82AF92AFB82EA821982188280911D
S11306007400909175000196909375008093740026
S113061011C0C12CD12C0EC0C12CD12C0BC0C12CAB
S1130620D12C08C0C12CD12C05C0C12CD12C02C0A6
S1130630C12CD12C0E947B06C601DF91CF911F9162
S11306400F91FF90EF90DF90CF900895CF93DF93B9
S11306500097A1F1FC01349722813381409170000D
S113066050917100B90164237523672B39F16081BE
S11306707181672B19F5EF0140955095242335239B
S1130680338322830E9456052091780030917900AB
S11306908A819B81820F931F9093790080937800C5
S11306A0CE010E940C028091720090917300019619
S11306B090937300809372000E947B06DF91CF9128
S11306C00895E0918006F09181068081811107C030
S11306D08FEF9FEF9093600680935F060895E091FB
S11306E08006F09181060580F681E02D808191815C
S11306F09093600680935F0608950CE616E00F2E33
S1130700F4E9EF2EF6E0FF2EF02D80916B0688239E
S113071029F10FB6F8940F92D8011596ED91FC913A
S11307201697C681D781CE0102960E948C008091D3
S11307306A06815080936A0680916B06815080938B
S11307406B060F900FBE8F89988D0E942603CE01F1
S11307500E94260380916B068111DBCFF701808113
S1130760823098F20E945401D0CF0F931F93CF93FD
S1130770DF93EC0100916806109169068091B80638
S11307809091B90602960E948C00C00FD11FE0918F
S1130790B806F091B906D383C283C017D10768F4B1
S11307A06091B8067091B90680917E0690917F069B
S11307B06E5F7F4F0E945B0017C06091B806709116
S11307C0B90680918006909181066E5F7F4F0E94EA
S11307D05B0080915F0690916006C817D90720F4EA
S11307E0D0936006C0935F06DF91CF911F910F9164
S11307F008954F925F926F927F928F929F92AF92E1
S1130800BF92CF92DF92EF92FF920F93CF93DF9339
S11308104C016B015A012901CA010E9459023C0191
S1130820892B09F406C186E290E00E945902EC018A
S1130830892B59F0788E6F8A81E0A81AB108A60C2A
S1130840B71CC114D10429F420C0C3010E9426039B
S1130850F0C0D6018C91898F8C918823A1F0AE01D0
S1130860465E5F4FF6013196B8E0CB0ED11CCF0146
S11308702191DA012D93AD01DC018C91882319F0CB
S1130880EC15FD05A1F718A201C0198E043008F07B
S113089003E00E8B6E01B2E0CB0ED11CC6010E94A8
S11308A05700CE010C960E945700D987C88784E070
S11308B090E0801B91099D878C87DB8BCA8B84E039
S11308C0FE01B196DF011D928A95E9F71DA2A201EE
S11308D0B401C5010E94B30099838883E114F10433
S11308E019F0F701D183C0830FB6F8940F92809169
S11308F06A068F5F80936A068091B8069091B90664
S1130900892BA9F5D093B906C093B80680916A06DD
S11309108130E9F584E996E00E9449008DE996E08A
S11309200E94490086EA96E00E9449008FEA96E018
S11309300E9449008BE896E00E94490082E896E014
S11309400E94490085E796E00E9449008CE696E003
S11309500E9449008BE896E090938106809380067C
S113096082E896E090937F0680937E0610C0809183
S1130970660681110CC0E091B806F091B90696891B
S11309808E89891720F0D093B906C093B806809158
S113099061068F5F809361068E8990916706981730
S11309A010F48093670690E0FC01EE0FFF1FEE0F3A
S11309B0FF1FEE0FFF1F8E0F9F1FFC01EC56F94F18
S11309C00180F281E02DFD83EC83848195819F83F6
S11309D08E83A481B5811396DC92CE921297D58230
S11309E0C482EE89F0E0CF01880F991F880F991F08
S11309F0880F991FE80FF91FEC56F94FFB87EA8718
S1130A0080818F5F80830F900FBE8091660688235C
S1130A1061F0E091B806F091B90696898E8998172D
S1130A2030F40E94540181E005C081E003C081E0FC
S1130A3001C08FEFDF91CF910F91FF90EF90DF9086
S1130A40CF90BF90AF909F908F907F906F905F906A
S1130A504F900895EF92FF920F930F2EFDE5EF2E26
S1130A60F6E0FF2EF02D00E020E030E045E550E018
S1130A7061E670E08DE793E00E94F903813081F430
S1130A80F8948FEF9FEF9093600680935F0681E068
S1130A908093660610926906109268060E941F01F0
S1130AA0809160000F91FF90EF90089580915C0613
S1130AB08F5F80935C060895EF92FF920F931F93CC
S1130AC0CF93DF9380915C06811104C1C0916806C5
S1130AD0D09169067E018FEFE81AF80AF092690650
S1130AE0E0926806E114F104B9F4809180069091D3
S1130AF0810620917E0630917F06309381062093F3
S1130B00800690937F0680937E06809162068F5FB5
S1130B10809362060E94610380915F069091600653
S1130B20E816F90610F480E0B9C080E061E0E091D5
S1130B308006F09181069081911107C02FEF3FEF5D
S1130B403093600620935F06A9C0E0918006F0917F
S1130B5081060580F681E02D0680F781E02D228153
S1130B603381E216F30628F43093600620935F067F
S1130B7095C0A285B3852481358146815781E901D9
S1130B805D834C832681378144815581E9015B83F0
S1130B904A83AF014E5F5F4F11962D913C9112979E
S1130BA02417350731F42681378112963C932E930E
S1130BB01197138612869C9191509C93A489B589B0
S1130BC0109719F12685378500891189E9011D835C
S1130BD00C832089318906851785E9011B830A83E3
S1130BE011960D911C9112979F01245F3F4F02179C
S1130BF0130731F42089318912963C932E9311976F
S1130C00158A148A9C9191509C9326899091670629
S1130C10921710F42093670630E0D901AA0FBB1F86
S1130C20AA0FBB1FAA0FBB1F2A0F3B1FD901AC562B
S1130C30B94F11960D90BC91A02DB583A483149641
S1130C402D913C9115973783268314962D913C91D1
S1130C501597E9015B834A8315965C934E93149729
S1130C60A689B0E09D01220F331F220F331F220FEC
S1130C70331FA20FB31FAC56B94FB387A2879C9101
S1130C809F5F9C93A091B806B091B90626895696A9
S1130C909C91291708F44BCF862F49CFE091B806D1
S1130CA0F091B906268930E0F901EE0FFF1FEE0F2F
S1130CB0FF1FEE0FFF1F2E0F3F1FF901EC56F94FD8
S1130CC09081923008F081E090916306992361F05D
S1130CD081E00AC080916406909165060196909324
S1130CE065068093640680E0DF91CF911F910F9198
S1130CF0FF90EF9008951F93CF93DF930FB6F8946E
S1130D000F9280915C06815080935C0680915C0612
S1130D108111C6C080916A0681119BC0C4C0DB01E9
S1130D201596ED91FC9116970680F781E02DA48924
S1130D30B5898685978520893189EC013D832C838B
S1130D408089918926853785EC013B832A83CF01ED
S1130D500C9611962D913C9112972817390731F46E
S1130D608089918912969C938E931197158A148A7F
S1130D708C9181508C93A285B38584819581268141
S1130D803781EC013D832C838681978124813581D1
S1130D90EC013B832A839F012E5F3F4F11968D9177
S1130DA09C9112978217930731F48681978112964A
S1130DB09C938E931197138612868C9181508C93F9
S1130DC0868990916706981710F48093670690E0DF
S1130DD0DC01AA0FBB1FAA0FBB1FAA0FBB1F8A0FE0
S1130DE09B1FDC01AC56B94F11960D90BC91A02D00
S1130DF0B583A48314968D919C91159797838683CC
S1130E0014968D919C911597EC013B832A8315963A
S1130E103C932E931497A689B0E0CD01880F991FB7
S1130E20880F991F880F991FA80FB91FAC56B94F87
S1130E30B387A2878C918F5F8C93A091B806B091F1
S1130E40B906968956968C91981740F0409363069C
S1130E5005C0E0E0F0E065E776E041E0DB018C917D
S1130E6081115DCFEF2B11F00E946103C0916406E4
S1130E70D0916506209761F011E00E945C05811114
S1130E80109363062197C9F71092650610926406C1
S1130E9080916306882331F00E94540181E003C0ED
S1130EA080E001C080E00F900FBEDF91CF911F91D1
S1130EB00895CF93DF93EC01892B51F00E945605DE
S1130EC060E0CE010E94B5030E947B06811102C03E
S1130ED00E945401DF91CF91089580915C0688238C
S1130EE021F081E0809363060895109263062091B7
S1130EF06706822F90E0FC01EE0FFF1FEE0FFF1F2D
S1130F00EE0FFF1FE80FF91FEC56F94F3081311136
S1130F1011C02150822F90E0FC01EE0FFF1FEE0F55
S1130F20FF1FEE0FFF1FE80FF91FEC56F94F30813A
S1130F30332379F3AC01440F551F440F551F440F5D
S1130F40551F480F591FDA01AC56B94F1196ED9150
S1130F50FC9112970280F381E02D1296FC93EE939C
S1130F6011974956594FE417F50729F442815381E3
S1130F70FD0152834183FC01EE0FFF1FEE0FFF1FA3
S1130F80EE0FFF1F8E0F9F1FFC01EC56F94F0180DF
S1130F90F281E02D868197819093B9068093B806FB
S1130FA0209367060895C2E0C5BB80ED97E00E94D8
S1130FB05907FACFC1E0C5BB2FE38DE093E0215080
S1130FC080409040E1F700C0000088EE93E00E946A
S1130FD05907F1CFEF92FF920F938FEF84BBE12C6F
S1130FE0F12C02E020E030E045E550E066E670E0F8
S1130FF08AED97E00E94F90301E020E030E045E546
S113100050E06BE670E083ED97E00E94F9030E94E4
S11310102A0580E090E00F91FF90EF900895F894F6
S1051020FFCFFC
S11310220349444C45006C656431006C65643200CC
S9030000FC
